:020000040800F2
:10000000002000201D040008E1030008E3030008AD
:1000100000000000000000000000000000000000E0
:10002000000000000000000000000000E5030008E0
:100030000000000000000000E7030008E9030008DA
:100040006D040008000000006D0400086D04000845
:100050006D040008F50300086D0400086D04000835
:10006000000000006D0400086D0400086D04000825
:100070006D0400086D0400086D0400080000000015
:100080006D0400086D040008000000006D04000805
:100090006D0400086D0400086D0400086D0400087C
:1000A0006D0400086D0400086D0400086D0400086C
:1000B0006D040008000000000000000000000000C7
:1000C00010B5064C2378002B07D1054B002B02D02E
:1000D000044800E000BF0123237010BD140000207D
:1000E0000000000070070008044B10B5002B03D07F
:1000F0000349044800E000BF10BDC04600000000F6
:100100001800002070070008002243088B4274D3B7
:1001100003098B425FD3030A8B4244D3030B8B4208
:1001200028D3030C8B420DD3FF22090212BA030C11
:100130008B4202D31212090265D0030B8B4219D3F2
:1001400000E0090AC30B8B4201D3CB03C01A524112
:10015000830B8B4201D38B03C01A5241430B8B425A
:1001600001D34B03C01A5241030B8B4201D30B0343
:10017000C01A5241C30A8B4201D3CB02C01A52416A
:10018000830A8B4201D38B02C01A5241430A8B422D
:1001900001D34B02C01A5241030A8B4201D30B0216
:1001A000C01A5241CDD2C3098B4201D3CB01C01A30
:1001B000524183098B4201D38B01C01A524143093A
:1001C0008B4201D34B01C01A524103098B4201D328
:1001D0000B01C01A5241C3088B4201D3CB00C01A95
:1001E000524183088B4201D38B00C01A524143080D
:1001F0008B4201D34B00C01A5241411A00D2014632
:10020000524110467047FFE701B5002000F006F8A4
:1002100002BDC0460029F7D076E770477047C04658
:1002200070B588B000F048F9FA212C4B89001868A5
:10023000FFF76AFF2A4B013898420DD8C021294A9E
:10024000090650602848036A1B021B0A0B4303621D
:1002500000239360073313601422002103A800F0E9
:100260007FFA8020214B80025969C02601435961E1
:1002700080215A69090302400192019A5A69B60025
:100280000A435A615B6900220B400293310018480F
:10029000029B00F02DFA902000240125154B03A9A4
:1002A000C00504930395059400F072F903A9104862
:1002B000039604950594069400F06AF92200210043
:1002C000052000F015F9052000F03CF9280000F0A9
:1002D00013F8200000F010F8FEE7C04608000020E8
:1002E000FFFFFF0010E000E000ED00E00010024022
:1002F0000008004800002110F0B58024104A2403B3
:10030000516987B0214351615369420023400093F2
:10031000009B0C4B0027D65A01230B4D84000293FF
:1003200001A90233605904930196039700F030F954
:100330003A003100605900F0DBF907B0F0BDC0466B
:10034000001002408807000800000020054B10B58F
:100350004200D15A044B80000122C05800F0C8F975
:1003600010BDC0468807000800000020054B10B5EE
:100370004200D15A044B80000022C05800F0B8F966
:1003800010BDC046880700080000002001200A4B6D
:1003900082B099690143996180219A6949050240B7
:1003A0000092009ADA690A43DA61DB690B40019333
:1003B000019B02B07047C04600100240074B10B5C9
:1003C0001C68002C09D0013C1C60012C05D10020C8
:1003D000FFF7CCFF2000FFF7C9FF10BD3000002061
:1003E0007047FEE77047704710B5FFF7E7FF00F072
:1003F00073F810BD10B50120FFF7A8FF0020FFF72C
:10040000A5FF034B034A01201A6000F079F910BDE3
:1004100030000020E9030000704700000D488546C9
:100420000D480E490E4A002302E0D458C45004334C
:10043000C4188C42F9D30B4A0B4C002301E0136023
:100440000432A242FBD3FFF7E7FF00F065F9FFF7A4
:10045000E7FEFEE70020002000000020140000203E
:10046000940700081400002038000020FEE7000078
:1004700070B50500FA200D4B80001978FFF744FE97
:100480000B4B01001868FFF73FFE00F067F804000F
:100490000120002C09D1032D07D8023822002900A1
:1004A00000F026F82000034B1D6070BD0C000020FA
:1004B00008000020100000201023064A10B5116823
:1004C00000200B431360FFF7D3FFFFF75FFF00200F
:1004D00010BDC04600200240034A044B11681B783F
:1004E0005B1813607047C046340000200C000020E9
:1004F00030B5FF2503242A00C3B21C40E400A2400B
:1005000089012940D243A14000280ADBC0240B4BBB
:1005100080088000C018A40003591A4011430151FB
:1005200030BD0F200340083B05489B089B001B186B
:10053000D86902401143D961F2E7C04600E100E00A
:1005400000ED00E0002805DB1F2318401E3B834020
:10055000014A13607047C04600E100E0094A431EAB
:10056000012093420DD8C021074A08485360036A0E
:1005700009061B021B0A0B4303620020072390603D
:1005800013607047FFFFFF0010E000E000ED00E0A7
:10059000F0B50B6887B0039300230191039ADA400A
:1005A00001D107B0F0BD01229A4002920299039A4C
:1005B0000A40009200D18CE0019A10215268160086
:1005C0008E43022E0ED107251D40AD000139A940F2
:1005D000DC08A4000419276A8F4301990969A9401E
:1005E0000F43276203245F00BC40E4430568013EDB
:1005F0002540AC4603251540BD4061460D430560CE
:10060000012E0FD801998668CD682640BD4035433C
:1006100085604668029915098E4301210D409D4071
:1006200035434560C56801992C408D688021BD40E7
:1006300049052C43C4600A424BD00121264C0326B5
:10064000A5691E400D43A561A4699D080C40059451
:10065000059C0F242149AD00B6006D18B4409021CF
:10066000AF68C905A743002488420CD01C49013457
:10067000884208D01B490134884204D01A49033407
:10068000884200D1023CB44000993C430E00AC606B
:10069000164CCD4327683E43D10301D43E002E4083
:1006A00026606768009E3E43910301D43E002E40C1
:1006B0006660A768009E3E43D10201D43E002E40F2
:1006C000A660E668009F3743920201D42E403700AF
:1006D000E760013362E7C0460010024000000140BD
:1006E0000004004800080048000C004800040140D5
:1006F000002A01D0816170478162FCE770470000E9
:10070000044B10B55A69104202D05861FFF7F6FF4A
:1007100010BDC0460004014070B500260C4D0D4CC4
:10072000641BA410A64209D1002600F021F80A4D4E
:100730000A4C641BA410A64205D170BDB300EB584F
:1007400098470136EEE7B300EB5898470136F2E7D9
:100750008C0700088C0700088C0700089007000829
:1007600003001218934200D1704719700133F9E762
:10077000F8B5C046F8BC08BC9E467047F8B5C04600
:08078000F8BC08BC9E4670475E
:04078800000200016A
:04078C00E900000878
:04079000C10000089C
:10079400000800480008004800127A000100000028
:0407A400040000004D
:040000050800041DCE
:00000001FF
